{
  "contractName": "Sweat",
  "abi": [
    {
      "constant": false,
      "inputs": [],
      "name": "withdrawWorker",
      "outputs": [],
      "payable": false,
      "stateMutability": "nonpayable",
      "type": "function"
    },
    {
      "constant": false,
      "inputs": [],
      "name": "accomplish",
      "outputs": [],
      "payable": false,
      "stateMutability": "nonpayable",
      "type": "function"
    },
    {
      "constant": true,
      "inputs": [],
      "name": "worker",
      "outputs": [
        {
          "name": "",
          "type": "address"
        }
      ],
      "payable": false,
      "stateMutability": "view",
      "type": "function"
    },
    {
      "constant": true,
      "inputs": [
        {
          "name": "",
          "type": "uint8"
        }
      ],
      "name": "accomplishedDays",
      "outputs": [
        {
          "name": "",
          "type": "bool"
        }
      ],
      "payable": false,
      "stateMutability": "view",
      "type": "function"
    },
    {
      "constant": true,
      "inputs": [
        {
          "name": "_compatibility",
          "type": "address"
        }
      ],
      "name": "balanceOf",
      "outputs": [
        {
          "name": "",
          "type": "uint256"
        }
      ],
      "payable": false,
      "stateMutability": "view",
      "type": "function"
    },
    {
      "constant": true,
      "inputs": [],
      "name": "daysDuration",
      "outputs": [
        {
          "name": "",
          "type": "uint256"
        }
      ],
      "payable": false,
      "stateMutability": "view",
      "type": "function"
    },
    {
      "constant": true,
      "inputs": [],
      "name": "windowEnd",
      "outputs": [
        {
          "name": "",
          "type": "uint256"
        }
      ],
      "payable": false,
      "stateMutability": "view",
      "type": "function"
    },
    {
      "constant": true,
      "inputs": [],
      "name": "windowStart",
      "outputs": [
        {
          "name": "",
          "type": "uint256"
        }
      ],
      "payable": false,
      "stateMutability": "view",
      "type": "function"
    },
    {
      "constant": true,
      "inputs": [],
      "name": "boss",
      "outputs": [
        {
          "name": "",
          "type": "address"
        }
      ],
      "payable": false,
      "stateMutability": "view",
      "type": "function"
    },
    {
      "constant": false,
      "inputs": [],
      "name": "withdrawBoss",
      "outputs": [],
      "payable": false,
      "stateMutability": "nonpayable",
      "type": "function"
    },
    {
      "constant": true,
      "inputs": [],
      "name": "end",
      "outputs": [
        {
          "name": "",
          "type": "uint256"
        }
      ],
      "payable": false,
      "stateMutability": "view",
      "type": "function"
    },
    {
      "inputs": [
        {
          "name": "_boss",
          "type": "address"
        },
        {
          "name": "_worker",
          "type": "address"
        },
        {
          "name": "_daysDuration",
          "type": "uint256"
        },
        {
          "name": "_windowStart",
          "type": "uint256"
        },
        {
          "name": "_windowEnd",
          "type": "uint256"
        }
      ],
      "payable": false,
      "stateMutability": "nonpayable",
      "type": "constructor"
    },
    {
      "payable": true,
      "stateMutability": "payable",
      "type": "fallback"
    }
  ],
  "bytecode": "0x6060604052341561000f57600080fd5b60405160a08061160a8339810160405280805190602001909190805190602001909190805190602001909190805190602001909190805190602001909190505084600560006101000a81548173ffffffffffffffffffffffffffffffffffffffff021916908373ffffffffffffffffffffffffffffffffffffffff16021790555083600660006101000a81548173ffffffffffffffffffffffffffffffffffffffff021916908373ffffffffffffffffffffffffffffffffffffffff160217905550826001819055506201518080600154024201016002819055508160038190555080600481905550610100610160565b604051809103906000f080151561011657600080fd5b600860006101000a81548173ffffffffffffffffffffffffffffffffffffffff021916908373ffffffffffffffffffffffffffffffffffffffff1602179055505050505050610170565b604051610d25806108e583390190565b6107668061017f6000396000f3006060604052600436106100af576000357c0100000000000000000000000000000000000000000000000000000000900463ffffffff16806315694c821461010d5780631ceb3700146101225780634d547ada14610137578063588e0b591461018c57806370a08231146101ca57806375149e48146102175780637db1f10114610240578063b0c2783a14610269578063c772af3914610292578063d55bc45a146102e7578063efbe1c1c146102fc575b600560009054906101000a900473ffffffffffffffffffffffffffffffffffffffff1673ffffffffffffffffffffffffffffffffffffffff163373ffffffffffffffffffffffffffffffffffffffff1614151561010b57600080fd5b005b341561011857600080fd5b610120610325565b005b341561012d57600080fd5b61013561040f565b005b341561014257600080fd5b61014a6105b2565b604051808273ffffffffffffffffffffffffffffffffffffffff1673ffffffffffffffffffffffffffffffffffffffff16815260200191505060405180910390f35b341561019757600080fd5b6101b0600480803560ff169060200190919050506105d8565b604051808215151515815260200191505060405180910390f35b34156101d557600080fd5b610201600480803573ffffffffffffffffffffffffffffffffffffffff169060200190919050506105f8565b6040518082815260200191505060405180910390f35b341561022257600080fd5b61022a610603565b6040518082815260200191505060405180910390f35b341561024b57600080fd5b610253610609565b6040518082815260200191505060405180910390f35b341561027457600080fd5b61027c61060f565b6040518082815260200191505060405180910390f35b341561029d57600080fd5b6102a5610615565b604051808273ffffffffffffffffffffffffffffffffffffffff1673ffffffffffffffffffffffffffffffffffffffff16815260200191505060405180910390f35b34156102f257600080fd5b6102fa61063b565b005b341561030757600080fd5b61030f610734565b6040518082815260200191505060405180910390f35b600660009054906101000a900473ffffffffffffffffffffffffffffffffffffffff1673ffffffffffffffffffffffffffffffffffffffff163373ffffffffffffffffffffffffffffffffffffffff1614151561038157600080fd5b6001546000541015151561039457600080fd5b600660009054906101000a900473ffffffffffffffffffffffffffffffffffffffff1673ffffffffffffffffffffffffffffffffffffffff166108fc3073ffffffffffffffffffffffffffffffffffffffff16319081150290604051600060405180830381858888f19350505050151561040d57600080fd5b565b6000600660009054906101000a900473ffffffffffffffffffffffffffffffffffffffff1673ffffffffffffffffffffffffffffffffffffffff163373ffffffffffffffffffffffffffffffffffffffff1614151561046d57600080fd5b600860009054906101000a900473ffffffffffffffffffffffffffffffffffffffff1673ffffffffffffffffffffffffffffffffffffffff166365c72840426000604051602001526040518263ffffffff167c010000000000000000000000000000000000000000000000000000000002815260040180828152602001915050602060405180830381600087803b151561050657600080fd5b6102c65a03f1151561051757600080fd5b5050506040518051905090506002544210151561053357600080fd5b60001515600760008360ff1660ff16815260200190815260200160002060009054906101000a900460ff16151514151561056c57600080fd5b60008081548092919060010191905055506001600760008360ff1660ff16815260200190815260200160002060006101000a81548160ff02191690831515021790555050565b600660009054906101000a900473ffffffffffffffffffffffffffffffffffffffff1681565b60076020528060005260406000206000915054906101000a900460ff1681565b600080549050919050565b60015481565b60045481565b60035481565b600560009054906101000a900473ffffffffffffffffffffffffffffffffffffffff1681565b600560009054906101000a900473ffffffffffffffffffffffffffffffffffffffff1673ffffffffffffffffffffffffffffffffffffffff163373ffffffffffffffffffffffffffffffffffffffff1614151561069757600080fd5b6001546000541015156106a957600080fd5b600254421115156106b957600080fd5b600560009054906101000a900473ffffffffffffffffffffffffffffffffffffffff1673ffffffffffffffffffffffffffffffffffffffff166108fc3073ffffffffffffffffffffffffffffffffffffffff16319081150290604051600060405180830381858888f19350505050151561073257600080fd5b565b600254815600a165627a7a72305820bffb83771a2192adfd4b40b76505bc7a3bd69793362d00f4e30f9208b661ffc400296060604052341561000f57600080fd5b610d078061001e6000396000f3006060604052600436106100d0576000357c0100000000000000000000000000000000000000000000000000000000900463ffffffff1680633e239e1a146100d55780634ac1ad781461011257806362ba96871461014f57806365c72840146101ba5780637f791833146101f75780638aa001fc146102565780638c8d98a0146102935780639054bdec146102e657806392d663131461035d578063a324ad241461039c578063a6f0e577146103d9578063b199993714610418578063b238ad0e1461044f578063fa93f8831461049c575b600080fd5b34156100e057600080fd5b6100f660048080359060200190919050506104d9565b604051808260ff1660ff16815260200191505060405180910390f35b341561011d57600080fd5b6101336004808035906020019091905050610506565b604051808260ff1660ff16815260200191505060405180910390f35b341561015a57600080fd5b6101a4600480803561ffff1690602001909190803560ff1690602001909190803560ff1690602001909190803560ff1690602001909190803560ff1690602001909190505061052d565b6040518082815260200191505060405180910390f35b34156101c557600080fd5b6101db6004808035906020019091905050610549565b604051808260ff1660ff16815260200191505060405180910390f35b341561020257600080fd5b610240600480803561ffff1690602001909190803560ff1690602001909190803560ff1690602001909190803560ff1690602001909190505061055f565b6040518082815260200191505060405180910390f35b341561026157600080fd5b610277600480803590602001909190505061057a565b604051808260ff1660ff16815260200191505060405180910390f35b341561029e57600080fd5b6102d0600480803561ffff1690602001909190803560ff1690602001909190803560ff16906020019091905050610590565b6040518082815260200191505060405180910390f35b34156102f157600080fd5b610347600480803561ffff1690602001909190803560ff1690602001909190803560ff1690602001909190803560ff1690602001909190803560ff1690602001909190803560ff169060200190919050506105ab565b6040518082815260200191505060405180910390f35b341561036857600080fd5b61037e6004808035906020019091905050610852565b604051808261ffff1661ffff16815260200191505060405180910390f35b34156103a757600080fd5b6103bd60048080359060200190919050506108fd565b604051808260ff1660ff16815260200191505060405180910390f35b34156103e457600080fd5b6103fe600480803561ffff16906020019091905050610913565b604051808215151515815260200191505060405180910390f35b341561042357600080fd5b6104396004808035906020019091905050610994565b6040518082815260200191505060405180910390f35b341561045a57600080fd5b610480600480803560ff1690602001909190803561ffff169060200190919050506109cd565b604051808260ff1660ff16815260200191505060405180910390f35b34156104a757600080fd5b6104bd6004808035906020019091905050610a99565b604051808260ff1660ff16815260200191505060405180910390f35b60006018603c80848115156104ea57fe5b048115156104f457fe5b048115156104fe57fe5b069050919050565b600060076004620151808481151561051a57fe5b040181151561052557fe5b069050919050565b600061053e868686868660006105ab565b905095945050505050565b600061055482610aba565b604001519050919050565b6000610570858585856000806105ab565b9050949350505050565b6000603c8281151561058857fe5b069050919050565b60006105a284848460008060006105ab565b90509392505050565b6000806105b6610c5b565b6107b291505b8861ffff168261ffff1610156105ff576105d582610913565b156105e8576301e28500830192506105f2565b6301e13380830192505b81806001019250506105bc565b601f816000600c8110151561061057fe5b602002019060ff16908160ff168152505061062a89610913565b1561065657601d816001600c8110151561064057fe5b602002019060ff16908160ff1681525050610679565b601c816001600c8110151561066757fe5b602002019060ff16908160ff16815250505b601f816002600c8110151561068a57fe5b602002019060ff16908160ff1681525050601e816003600c811015156106ac57fe5b602002019060ff16908160ff1681525050601f816004600c811015156106ce57fe5b602002019060ff16908160ff1681525050601e816005600c811015156106f057fe5b602002019060ff16908160ff1681525050601f816006600c8110151561071257fe5b602002019060ff16908160ff1681525050601f816007600c8110151561073457fe5b602002019060ff16908160ff1681525050601e816008600c8110151561075657fe5b602002019060ff16908160ff1681525050601f816009600c8110151561077857fe5b602002019060ff16908160ff1681525050601e81600a600c8110151561079a57fe5b602002019060ff16908160ff1681525050601f81600b600c811015156107bc57fe5b602002019060ff16908160ff1681525050600191505b8760ff168261ffff16101561081457806001830361ffff16600c811015156107f657fe5b602002015160ff1662015180028301925081806001019250506107d2565b6001870360ff166201518002830192508560ff16610e1002830192508460ff16603c02830192508360ff168301925082925050509695505050505050565b600080600080600092506301e133808581151561086b57fe5b046107b261ffff160191506108856107b261ffff16610994565b6108928361ffff16610994565b039050806301e285000283019250806107b2830361ffff16036301e1338002830192505b848311156108f2576108ca60018303610913565b156108dd576301e28500830392506108e7565b6301e13380830392505b6001820391506108b6565b819350505050919050565b600061090882610aba565b602001519050919050565b60008060048361ffff1681151561092657fe5b0661ffff1614151561093b576000905061098f565b600060648361ffff1681151561094d57fe5b0661ffff16141515610962576001905061098f565b60006101908361ffff1681151561097557fe5b0661ffff1614151561098a576000905061098f565b600190505b919050565b6000600182039150610190828115156109a957fe5b046064838115156109b657fe5b046004848115156109c357fe5b0403019050919050565b600060018360ff1614806109e4575060038360ff16145b806109f2575060058360ff16145b80610a00575060078360ff16145b80610a0e575060088360ff16145b80610a1c5750600a8360ff16145b80610a2a5750600c8360ff16145b15610a3857601f9050610a93565b60048360ff161480610a4d575060068360ff16145b80610a5b575060098360ff16145b80610a695750600b8360ff16145b15610a7757601e9050610a93565b610a8082610913565b15610a8e57601d9050610a93565b601c90505b92915050565b6000603c8083811515610aa857fe5b04811515610ab257fe5b069050919050565b610ac2610c87565b60008060008060009350610ad586610852565b856000019061ffff16908161ffff1681525050610af76107b261ffff16610994565b610b08866000015161ffff16610994565b039250826301e285000284019350826107b286600001510361ffff16036301e133800284019350600191505b600c8260ff16111515610b8c57610b4f8286600001516109cd565b60ff1662015180029050858482011115610b7a5781856020019060ff16908160ff1681525050610b8c565b80840193508180600101925050610b34565b600191505b610ba3856020015186600001516109cd565b60ff168260ff16111515610bea57858462015180011115610bd55781856040019060ff16908160ff1681525050610bea565b62015180840193508180600101925050610b91565b610bf3866104d9565b856060019060ff16908160ff1681525050610c0d86610a99565b856080019060ff16908160ff1681525050610c278661057a565b8560a0019060ff16908160ff1681525050610c4186610506565b8560c0019060ff16908160ff168152505050505050919050565b61018060405190810160405280600c905b600060ff16815260200190600190039081610c6c5790505090565b60e060405190810160405280600061ffff168152602001600060ff168152602001600060ff168152602001600060ff168152602001600060ff168152602001600060ff168152602001600060ff16815250905600a165627a7a723058206aa169fba75f89ce60f28d8241840a4823070040c5ef01af376bdddd17807a3a0029",
  "source": "pragma solidity ^0.4.18;\n\nimport \"./DateTime.sol\";\n\ncontract Sweat {\n    uint256 balance;\n\n    uint256 public daysDuration;\n    uint256 public end;\n    uint256 public windowStart;\n    uint256 public windowEnd;\n\n    address public boss;\n    address public worker;\n\n    mapping (uint8 => bool) public accomplishedDays;\n\n    address dateTime;\n\n    function Sweat(address _boss, address _worker, uint256 _daysDuration, uint256 _windowStart, uint256 _windowEnd) {\n        boss = _boss;\n        worker = _worker;\n\n        daysDuration = _daysDuration;\n        end = now + daysDuration * 1 days + 1 days;\n\n        windowStart = _windowStart;\n        windowEnd = _windowEnd;\n\n        dateTime = new DateTime();\n    }\n\n    function () payable {\n        require(msg.sender == boss);\n    }\n\n    function withdrawBoss() {\n        require(msg.sender == boss);\n        require(balance < daysDuration);\n        require(now > end);\n\n        boss.transfer(this.balance);\n    }\n\n    function withdrawWorker() {\n        require(msg.sender == worker);\n        require(balance >= daysDuration);\n\n        worker.transfer(this.balance);\n    }\n\n    function accomplish() {\n        require(msg.sender == worker);\n\n        uint8 currentDay = DateTime(dateTime).getDay(now);\n\n        require(now < end);\n        require(accomplishedDays[currentDay] == false);\n\n        balance++;\n\n        accomplishedDays[currentDay] = true;\n    }\n\n    function balanceOf(address _compatibility) public constant returns(uint256) {\n        return balance;\n    }\n}",
  "sourcePath": "/home/sevenflash/apps/blockchain/sweat/contracts/Sweat.sol",
  "compiler": {
    "name": "solc",
    "version": "0.4.18+commit.9cf6e910.Emscripten.clang"
  },
  "schemaVersion": "1.0.1",
  "updatedAt": "2018-03-27T01:57:20.177Z"
}